:400000000040002011000000E50B0000E50B000010B500F007FEC04610B51222564B1A6001F0B0F8554802F05FFE302000F08CFF534A544B1A608022D205534B1A600222E0
:40004000524B1A600732524B1A600132514B1A60FA20C00001F068F8C0B2002802D0012000F062FD4C4800F065FF4C490A684C4B1340102213430B604A4C4B4B2360F0203E
:4000800002F032FE494B2360002405E0F020400002F02AFE0134E4B2182C03D8444B1B68002BF3D0424B1B68002B02D1032000F03BFDEE22D2013F4B1A603F4B3F4A1A60DD
:4000C0003F49404A1160404A1A60404A40490A604049196040490A60404A1A60BC2189013F4A11603F4A1A60882189013E4A11603E4A1A60E82149013D4A11603D4A1A6025
:40010000802189003C4A11603C4A1A603C4A234B1A60822212063B4B1A6044223A4B1A607C323A4B1A607A3A394B1A60013A394B1A60023A384B1A60013A384B1A60013ACB
:40014000374B1A60013A374B1A603749082000F023FE082000F00AFE344A0B4B1A6080221203334B1A60324B1B681B03FBD4802252022F4B1A6010BD30001040001BB70080
:400180000600008004010B400C020B4008000C400CFF0C4010FF0C40DC05000000010B4007FEFFFF20000C4010070280100702C024000C40100301400000014044FF008034
:4001C00000FFFFFF00050140C0FF0080007FBB001803014046FF00801403014045FF00800C03014043FF00800803014042FF00800403014041FF00800003014040FF0080DC
:400200001000050008010B405801014050010140300101402C01014028010140140101401001014008010140911200000000014F10020B4070B572B60122514B1A700024E3
:400240000FE050486200131959000B00411889881A5AC31858880004104300F081FC0134E4B2022CEDD9002411E0464EA2001319590071188D8AC88A000428430A8B498B4F
:4002800009041143802200F071FC0134E4B2002CEBD03C4920313C48583000F047FCA02212013A4B1A800121394B1970394A3A4B1A603A4A3A4B1A60EE221202394B1A60CD
:4002C000394A3A4B1A603A4A3A4B1A6099231B04394A136039483A4A10603A4A13603A4A13609C208003394A1060394A1360394A1360394A13601A22384B1A600323384AD0
:400300001360384A1360384803783C22934314221343DBB20370354A107816230343DBB213700623324A13600D2232480260324C32480460324802608D20324A1060324896
:40034000324A10608020324A10603248324A10603248334A10602F20324A10603248334A1060334A1160334A1360334A334B1A600222334B1A60FFF74FFE00F00BFC70BDC0
:400380001C700F40004000000042000000600F4002600F40FFFF000000010240033300000002024000030240E633300000050240990E00000006024000500F400000E1047D
:4003C00008500F4010500F4020500F4028500F4040500F4050500F4070500F40200120402000104000800F4001700F4000700F4008000440000104408E6D1B000801044011
:4004000018010440000204408E0D00000802044018020440860DC00008030440B61D04000804044000050440A00D0300080504401805044000060440316100000806044030
:400440001806044010B5064C2378002B07D1054B002B02D0044800E000BF0123237010BD5801002000000000B03E0000084B10B5002B03D00749084800E000BF0748036833
:40048000002B00D110BD064B002BFBD09847F9E7000000005C010020B03E0000C00000200000000030B5A7B062B600F0A1FA01F0A1F9234801F012FA224801F00FFA224882
:4004C00001F00CFA02F0BAF93C2220490DA803F0B9F8002300E00133632BFCDD00F040FF02F0E4FA02F0F2FA002200230A920B9308230AAA0021502000F09CF90A9B0B9A07
:40050000134301D000F0CAFA01AC114923000A0023CA23C323CA23C323CA23C300F0CCFA800002590B490DA803F09EF80DA801F0D5F900F0E1FAFA20800000F065FCE3E71C
:40054000E03E0000383F00005C3F0000603F0000BC3E00009C3F0000F0B5012407E065006E1E075D8F55165D4E550134E4B29C42F5D3F0BD43781B02027813430B82C37849
:400580001B02827813434B8243791B02027913438B82C3791B0282791343CB82437A1B02027A13430B83C37A1B02827A13434B83437B1B02027B13438B83C37B1B02827B8B
:4005C0001343CB83437C1B02027C13430B84C37C1B02827C13434B84437D1B02027D13438B84C37D1B02827D1343CB84427E2823CA54704710B543781B02027813434B85BA
:4006000082782C23CA540323C3561C0102790F2313402343CB850523C3561A0103791B0913430B86062282563223CA5410BDC04600280BD04368002B0BD08368002B0BD073
:40064000C368002B0BD10120404209E00120404206E00120404203E00120404200E000207047C046F0B583B00400019116001F001800FFF7DDFF002810D1BB78012B03D085
:4006800080235B421C43E4B27D6878783300019A2100A847002801D00420404203B0F0BD30B589B005001A22002101A802F0D3FF2B001A2201A98820FFF7D4FF041E0FD1E2
:4006C000290001A8FFF756FF2B00072201A9E120FFF7C8FF041E03D1290001A8FFF78AFF200009B030BDC046F0B54F4680B482B000AF0600894615001C0053000733DB0849
:40070000DB006A46D31A9D467B602000FFF790FF00282BD1002E2CD0494600292CD0002D2DD00B787A681370A378012B08D10AE0B1180B787F2003400B700132D2B200E080
:400740000022AA42F4D3012D07D92B004A4679683000FFF701FF6B0000E0ABB2A568607831787A68A84700280ED00BE0012040420AE00120404207E00120404204E003201B
:40078000404201E004204042BD4602B004BC9146F0BDC04630B583B00500E0226B46DA712A3A6B469A71FFF743FF041E0BD12B0001226946063168460730FFF795FF040019
:4007C000EB6802209847200003B030BD70B582B0060000226B46DA71FFF72AFF041E1FD025E03300012269460731D020FFF73AFF041E0FD16B4607331B78602B0AD1337050
:400800003000FFF7C7FF041E0DD13000FFF748FF040008E00120F3689847013DEDB200E00525002DDDD1002D01D102246442200002B070BDF0B54F464646C0B483B004001B
:40084000884616001D004B0999461F270F4000F037FF01940021200000F0F2FD012002F043FA4346180A00F09DFE012002F03CFAFF204346184000F095FE012002F034FA41
:400880000121200000F040FF012002F02DFA3EE0002C04D0002000F0D1FE307003E0012000F0CCFE3070012002F01EFA01360137FFB2642F2AD1002C28D04B4601339BB283
:4008C000994600F029FE012002F00EFA0021019F380000F0B5FD012002F006FA4B465D01ADB2280A00F05EFE012002F0FDF9FF20284000F057FE012002F0F6F9012138003C
:4009000000F002FF012002F0EFF9002725006C1EE4B2002DBCD100F0FFFD03B00CBC90469946F0BD70B594B015006A46D17101A90B8000231393D379742B02D1012000F09F
:4009400063FA01AA138801339BB213801488E4B2002306E0FF210BAAD154002103AAD15401331D2BF6D96B46DA7980235B4213430BAA137001F014F9002604E00BAB985DC8
:4009800001F01AF8013601A90B889BB25A1E92B20A80002BF2D101F0ABF88442FBD101F01DF900240AE001F071F803AB1855002C03D01B5DDBB22B700135013401F098F804
:4009C0000028F0D114B070BD10B57F200840074C20701378637000F0EFFF607800F0ECFF01F0B2F80028FBD110BDC0467401002010B5094C00236370A370084B6360084B1C
:400A0000A360084BE36001F07BF92000FFF7DEFE054B987010BDC0460802002025090000C9090000090E00007401002070B502F01BF904000120204005D00B4A136801333C
:400A4000136002F017F902231C400BD002F0B6F8054DA880002002F0A1F80123AB71200002F008F970BDC0467801002010B500220CE05300084C1B5B5B1ADC171B19634092
:400A80009BB2122B01D8027004E00132072AF0DD0823037010BDC046C400002010B502F0D3F8034802F012F90022024B9A7110BD2D0A00007801002010B582B0022002F00B
:400AC0000FF8002002F020F80100002002F032F881B26B46DC1D2000FFF7C8FF2378082B03D1044BDA796B46DA716B46D87902B010BDC0467801002000B59BB0084B9988FA
:400B00009620000102F07CFBFF220240054901A802F0AAFD01A800F0E1FE00201BB000BD78010020F83F0000FEE7C046F0B50025002711E0BB00C658F3B2FF22964308E085
:400B40006A008A181478A419527822700135013BDBB2002BF4D101370E2FEBD9F0BDC04610B50A00002102F076FD10BD10B502F069FD10BD064B1B68002803D08022120654
:400B8000134301E05B005B08014A13607047C04680033A4010B503230A4A13600A4A13600A4A136080221206094B1A60094B0A4A13600A4A13600022094B1A600120FFF717
:400BC000D9FF10BD00210240300030403000314000003A408000040000033A4040033A40000E3F4010B502F001FD03680C2B00D1FEE7FEE710B50300084A1068C318084A36
:400C00009A1A802A02DC054A136005E002F0EEFC0C2303600120404210BDC046D40000201803002070B50F4E0F4D13E029686B68AC68002202E001C901C30432A242FAD1FE
:400C4000E868002202E0002102C304328242FAD11035013E002EE9D102F0CEFCFFF722FCFEE7C04601000000E443000010B50E4A136801218B43136000230AE0032B03D815
:400C80009A000A49505800E009489900094A885001332F2BF2D9FFF7CDFA034A116801230B43136010BDC0460000104000000000E50B000000000020024A1168024B0B4059
:400CC0001360704700002240FFFFFFBF034B18688023DB05184000D001207047000022400A4A136801218B431360094B1A681E318A43084802601A688A4317390A431A60BD
:400D0000054A116802230B431360704750000C4034FF0B408001002024002C40064A136802218B43136005490B681F229343044A126813430B60704724002C4034FF0B40AE
:400D400080010020034B1B680220184000D001207047C04624002C40034B1B680120184043425841C0B270470C000C401F2318401E3B8340014A13607047C04600E100E06E
:400D80001F2318401E3B8340014A13607047C04680E100E001BE704770B504000D001F2802D90020FFF7F6FF1034A40080239B059C4664442068256070BDC04670B50400CA
:400DC0000E00032902D90020FFF7E4FF1F2C02D90020FFF7DFFF03252540ED00063501F08CFFA408A400074B9C46644421680323AB4099430B003100A9401943216001F005
:400E000080FF70BD00E400E010B5040006E0084B586801F069FF074B9C46644480231B029C42F4D8024B9868604301F05DFF10BDD80000200080FFFF30B583B000F0C2F99E
:400E400000285FD001F059FF04002F4A116801230B43136000230AE02C4A12683F210A402B49C95C8A4201D1033303E001332D2BF2D90323274A1268D20606D12548026812
:400E80001F218A4313390A430260234A1168234A0A40234959438020C00184466144C90B01394905490D0A43A021490311430800192B02D81B4B1A430EE01B4A9A181278DD
:400EC0001A3B1349C9183023CB5CD318FF2B00D9FF239B0502001A430F4B1A60134D2B680193302001F010FF114A13688021C9050B4313601420FFF787FF019B2B6020002F
:400F000001F0FFFE03B030BD50000C402CFF0B401443000034FF0B400800224000F800C040420F000000D43F4DF3FF0F300010400000224010B5034B1B7B584301F0D4FE3F
:400F400010BDC046D8000020F0B55F4656464D464446F0B483B0040001F0CFFE0190FFF7B5FE002804D0FFF7A7FE01239B4601E000239B46FFF7E6FE002807D0182C01D061
:400F8000302C05D1FFF7CAFE012502E0002500E00025E71E2D2F00D985E04E4B1B78DBB29C4208D84C4B1B78DBB29A464B4B1B78DBB2994631E04A4B1B78DBB29C4208D849
:400FC000484B1B78DBB29A46474B1B78DBB2994623E0464B1B78DBB29C4208D8444B1B78DBB29A46434B1B78DBB2994615E0424B1B78DBB29C4208D8404B1B78DBB29A4654
:401000003F4B1B78DBB2994607E03E4B1B78DBB29A463D4B1B78DBB299463C4BDB5D98462F2B09D92A2C07D91922394B1A60052001F05AFE192603E0354B1E683F231E4092
:40104000464506D9314BDA5D314B1A60052001F04BFE012D05D1302C03D12E4B1B78DBB20CE0012D05D1182C03D12B4B1B78DBB204E0254B9C4664442378DBB2274A1360A9
:40108000274B52461A60274B4A461A600520FFF751FF46450AD21D4BDA5D1D4B1A60052001F022FE02E00020FFF774FE5B46012B01D1FFF7C1FE012D01D1FFF711FE01984B
:4010C00001F01FFE03B03CBC90469946A246AB46F0BDC04640F3FF0F41F3FF0F42F3FF0F43F3FF0F44F3FF0F45F3FF0F46F3FF0F47F3FF0F48F3FF0F49F3FF0F4AF3FF0FF4
:401100004BF3FF0F4CF3FF0F4DF3FF0F144300002CFF0B403FF3FF0F3EF3FF0F28FF0B401CFF0B4020FF0B4070B504000F4D2B688022120613432B600A20FFF7FBFE2A68DC
:40114000012313432B60002C09D100200CE00120FFF7F0FEFFF700FE002804D1013C002CF5D1102000E0002070BDC04608000C40034B1868C0231B02184000D001207047AE
:4011800000010B4010B50D4B1A6801218A431A601A68022082431A60094A10683024A043203C204310601068093CA043014311601A68802109060A431A6010BD000022404A
:4011C000000F2240034B1B68002B01DA012000E0002070470000224010B501F08EFD044A1368C02109020B43136001F08AFD10BD00010B4010B501F080FD08490A68084BDC
:401200001A408024E40122430A600A6813408022120213430B6001F074FD10BD00010B40FF3FFFFF70B5050001F067FD0400FFF79FFF002803D0FFF7DDFF012100E0002102
:4012400008482840084A1568084B2B40184310601368012901D1FFF7BFFF200001F051FD70BDC0460404040010020B40FBFBFBFF10B5022805D88000044B1B18986999617F
:4012800003E00020FFF786FD002010BD9C01002010B5244B1B685B0715D5234B5B685B070ED5224B596A042001401F4C62688A4362605A6A82435A629B69002B00D0984713
:4012C0000420FFF7AFFF174B1B685B0518D5164B5B685B0510D5154B596A8022D2001140114842688A434260596A114A0A405A62DB69002B00D098478020C000FFF792FF08
:40130000084B1B685B030CD5074B5B685B0304D5064B1B6A002B00D098478020C002FFF781FF10BD10020B40EC0000209C010020FFFBFFFF10B50B20FFF718FD10BDC0460B
:4013400010B500F01DF810BD10B5044A1368802109060B431360FFF7EDFF10BD0000264010B5064B1B78002B04D1FFF7E9FF0122024B1A70FFF7E8FF10BDC046C4010020AC
:4013800010B5802212011A4B1A601A4A1A4B1A601A4B1B4A136000241A4A14601A4A14601A4A13601A4B1C600B20FFF7E9FC03210B20FFF703FD17490B20FFF7EDFC164BB2
:4013C0001C60164B1C60164B1C601422FF32154B1A60154B1C60154B1C60043AFF3A144B1A70144B1C80144B1C60144B1C6010BD00002640FF0800806000264007010080A5
:4014000000032640040326401003264000022640040226405D2D0000C80E2640880E2640480F2640080F2640C80F2640880F26404802002058020020680200205002002073
:4014400070B504000D002D4B1B78102B51D12C4B1B68DB074FD40B20FFF792FC6400FF231C40002D03D12422244B1A7004E02522224B1A7001231C43224B1C60224A234B96
:401480001A600222224B1A60204B1A680823FF331A42F9D01D4B1B685B0714D41B4B1B689B0713D4194B1B68DB0705D51022134B1A70012001210BE01022104B1A708020EF
:4014C0004000012104E00020002101E0022000210822FF320D4B1A6000290DD00D4A13685B005B0813601368802109060B43136002E0042000E0082070BDC0464802002074
:40150000640026404002264017030000000F264068002640000026401D4B1B789B0634D51C4B1B689B0601D5182200E010221A4B1A601A4B1A681223FF331A42F9D0174B70
:401540001B68DB0606D4154B1B68DB0705D50120012105E00020002102E08020400001211222FF320D4B1A60023AFF3A084B1A7000290BD00A4A13685B005B081360136839
:40158000802109060B43136000E004207047C046480200206400264068002640000F264000002640214B1B789B063CD5204B1860204B1A680823FF331A42F9D01D4B1B682E
:4015C0005B0705D56022194B1A700020002119E0184B1B689B0705D56022144B1A70022000210FE0134B1B68DB0705D510220F4B1A700120012105E010220C4B1A70802078
:40160000400001210822FF320A4B1A6000290BD0094A13685B005B0813601368802109060B43136000E004207047C0464802002040022640000F2640000026400100194B1C
:401640001B789B062BD5184B1B685B0705D4174B1A680223FF331A42F5D0134B1B685B070DD5134B186804220F4B1A60002902D1104B1A6015E060220A4B1A7011E00E4A4C
:401680000A4B1A600D4A13685B005B0813601368802109060B4313600120404201E001204042704748020020C00F2640000F26404003264068002640170300000000264083
:4016C00010B50B20FFF75CFB0022054B1A60054A138801218B4313800B20FFF747FB10BD6802002058020020054B1B682022134000D0082301221343024A13607047C046C8
:40170000640026406800264010B52A4B1B789B064DD54000FF240440002903D12422254B1A7004E02522234B1A7001231C43224A224B1A60FFF7D8FF214B1B68DB07FBD437
:40174000204B1C601D4B1A680823FF331A42F9D01A4B1B685B0714D4184B1B689B0713D4164B1B68DB0705D51022124B1A70012001210BE010220F4B1A7080204000012176
:4017800004E00020002101E0022000210822FF320A4B1A6000290BD00B4A13685B005B0813601368802109060B43136000E0042010BDC0464802002017030000000F2640F5
:4017C00068002640400226400000264010B500F073F810BD10B500F01DF810BD10B5044A1368802109060B431360FFF7EFFF10BD0000274010B5064B1B78002B04D1FFF7D3
:40180000E9FF0122024B1A70FFF7E8FF10BDC046CC01002010B5154A154B1A600023154A13600121144A1160144A15480260072414480460144803601448016014490A60FA
:40184000144A13600421144A1160144A1360144A1360144A1360144A1360144A1360144A13601268134B1A8010BDC0460B0000020000274040002740480027400700008027
:4018800000032740040327401003274044002740000227400402274050002740880E2740C80E2740480F2740080F2740C80F2740880F2740CE01002005490B68F022934354
:4018C000603A13430B60034B1A88034B1A60704700060240CE010020880F274070B50500002402E001F0F4FB0134285D0028F9D170BDC04610B50120FFF738FA10BDC04619
:4019000010B50020FFF732FA10BDC04610B501F0F4F90C4A117820230B43DBB213700A490A7810231A43D2B20A70084A11780B43DBB2137001F0E5F9FFF7DCFFFFF7E0FF99
:4019400010BDC04693000F4094000F4092000F4010B50120FFF714FA10BDC04610B50020FFF70EFA10BDC04610B5FFF7F1FF064B1978064A147809231C400C430023137095
:40198000FFF7B8FF200010BD64000F408402002010B5FFF7E3FF064B1978064A147840231C400C4300231370FFF7AAFF200010BD62000F40AB02002010B504002B4B1B7849
:4019C000DBB2002B02D0013BDBB200E00F23284A1278D2B29342F1D0FFF7BAFF254B187825490B780922134003430B701F4B1A78D2B21F4B1B78DBB29A4205D10B785B07EC
:401A000002D51E4B1C702DE0194A13780133DBB213701378DBB20F2B02D90022144B1A70134B1A78D2B2114B1B78DBB29A420ED10E4A13780133DBB213701378DBB20F2B3F
:401A400002D90022094B1A7001220D4B1A70084B1B78DBB20B4AD4540B4A117804230B43DBB21370FFF746FF10BDC046A7020020A902002064000F408402002043000F40A6
:401A8000A60200207402002084000F4010B5FFF765FF134B1A78D2B2124B1B78DBB29A4213D0114B1B78002B0CD10D4A13780133DBB213701378DBB21D2B06D90022084B55
:401AC0001A7002E00022084B1A70054B1B78DBB2064AD45CE4B2FFF713FF200010BDC046AA020020A8020020700200208802002010B5FFF733FF124B1A78D2B2114B1B78D9
:401B0000DBB29A4216D00E4B1A78D2B20D4B1B78DBB29A4206D20B4B1B78094A14781C1BE4B208E0074B1B78054A14781C1B1E34E4B200E00024FFF7E3FE200010BDC04691
:401B4000AA020020A802002010B5FFF701FF124B1A78D2B2114B1B78DBB29A4216D00E4B1A78D2B20D4B1B78DBB29A4206D20B4B1B78094A14781C1BE4B208E0074B1B7866
:401B8000054A14781C1B1034E4B200E00024FFF7B1FE200010BDC046A7020020A902002010B501E0084B1B78084B1B789B06F9D4FFF7D4FE0023064A1370064A1370064A48
:401BC0001370FFF79DFE10BD53000F4062000F4070020020AA020020A802002010B501F08CF80E4A117801230B43DBB21370137801218B43137001F084F8FFF7A9FE0023C1
:401C0000074A1370074A1370074A1370074A137804218B431370FFF76DFE10BD93000F40A6020020A7020020A902002084000F4010B501E00A4B1B780A4B1B789B06F9D4B3
:401C400001F05BF8084A117801230B43DBB21370137801218B43137001F053F810BDC04653000F4062000F4093000F4010B50F22184B1A700120FFF783F803210120FFF7D1
:401C80009DF815490120FFF787F80020FFF778F803210020FFF792F810490020FFF77CF8FFF7C6FF00240E4B1C700E4B1C700E4B1C700E4B1C700E4B1C700E4B1C70FFF73B
:401CC00053FEFFF765FE0C4B1C7020220B4B1A7010BDC04683000F40211D0000BD1D000070020020AA020020A8020020A6020020A7020020A902002084000F4082000F4050
:401D000010B5064B1B78002B04D1FFF7AFFF0122024B1A70FFF7FAFD10BDC046D001002026E01E4B18781E490B780922134003430B700B785B0723D51A4B1B78002B0CD1A6
:401D4000194A13780133DBB213701378DBB20F2B06D90022144B1A7002E00022114B1A70114B1B78DBB2114AD35CDBB2104A13700D4B1A78D2B20F4B1B78DBB29A42D0D136
:401D8000094B1A78D2B20B4B1B78DBB29A4204D1094A137804218B431370704764000F4084020020A6020020A70200207402002043000F40A902002084000F40204B1878DC
:401DC00020490B784022134003430B7032E01E4B1A78D2B21D490B780133DBB20B700B78DBB21D2B02D90021184B1970174B1978C9B2174B1B78DBB299420ED114490B7801
:401E00000133DBB20B700B78DBB21D2B02D900210F4B197001210F4B19700C4B1B78DBB20D49CA54064B187806490B784022134003430B70034B1B789B06C8D47047C0463B
:401E400062000F40AB02002053000F40A8020020AA0200207002002088020020F8B54F464646C0B480468946030B03251D40FA2189000A006A43030A0F210B406420434319
:401E80009D1843461B090B409A00D3185B005B1945460D405D1900260027574C1FE0A30705D16421200001F0A7F9002908D1C8214900200001F0A0F9002903D1012302E04D
:401EC000012300E00023002B04D04C4A0023B6185F4103E04A4A0023B6185F410134AC42DDD343461B0D012213409A00D3185B004246120C0F210A409B185A1E520041498C
:401F0000545A022B16D9AB0705D16421280001F073F9002908D1C8214900280001F06CF9002903D1012302E0012300E00023002B00D0013434494C4322000023B6185F417A
:401F400043461A0F03252A4093009B185B004246120E0F2422409B184B432C4A9818002136184F414B461B0D2B409A00D3185B004A46120C14401B198022120449460A400E
:401F800000D00122002A0DD08022D20349461140914201D1012200E00022002A02D00B2B00D80C33E12212015A431000002136184F414B461B0B072423409900CB185900E1
:401FC0004B461A0A0F231A4089180A01521A9000002136184F414A461209224091008A18520049460B40D0180021801979410CBC90469946F8BDC046B20700000085E201D8
:402000008033E1015C4300008051010080AEFEFF70B50C00431E0F4AD3181D7E022816D18B0705D16421200001F0E6F8002908D1C8214900200001F0DFF8002903D10123D4
:4020400002E0012300E00023002B00D00135280070BDC0465C430000F0B55F4656464D464446F0B485B0824614001D00A04BA14A0296039717001DE0009A019BA41A9D4169
:402080000137BB0705D16421380001F0B5F8002908D1C8214900380001F0AEF8002903D1012302E0012300E00023002B01D0924B00E08F4B009300230193002DDCD1009A77
:4020C000019B9D4201D19442D6D8B84641460120FFF79EFF894B5843012399460AE0A41BBD4101239C46E14441464846FFF790FF824B584306000027AF42F0D1A042EED908
:402100007E4A00232000290001F066F97B4941430A000023AB4203D1A14201D900220023A41A9D41471CE122120100232000290001F052F90090E121090141430E9B002B32
:4021400014D0002D03D10AD16D4B9C4207D9009B0C2B0ED90C38009001239B460EE0009B002B09D19B460C33009307E000239B4604E001239B4601E000239B460A00002370
:40218000AB4203D1A14201D900220023A41A9D413C2200232000290001F01EF906000101891B8A000023AB4203D1A24201D900220023A41A9D41029403950A21484600F05E
:4021C00095FF05050A21484601F016F80C0425430A21380000F08AFF04072C430A21380001F00AF80D062C43FA218900404600F07DFF05032543FA218900404600F0FCFFC8
:402200000C006421200000F071FF000205436421200000F0F1FF0C000A21200000F066FF000105430A21200000F0E6FF0D4353465D600E9BDB055A4695052B431C000A218B
:40224000009800F053FF050525430A21009800F0D3FF0C0425430A21300000F047FF04032C430A21300000F0C7FF09020C430A21029D039E280000F039FF000104430A2175
:40228000280000F0B9FF0C4353461C604B46022B05D80C239C46E1440D3B9C46E044484601301A2358430A2100F020FF3F184744434698083F186421404600F017FF430044
:4022C000181840003F18C8214900404600F00EFF3818072100F090FF002900D107315346996005B03CBC90469946A246AB46F0BD8033E101B20700000085E2018051010037
:40230000C1A80000F0B55F4656464D464446F0B483B0834689461700009319001000FFF777FE824601230193984601262DE0022F04D838000C30009B5D1E01E0009D3800A5
:4023400001301A2358430A2100F0D0FE34186019AC0804196421280000F0C8FE430018184300E418C8214900280000F0BFFE2018072100F041FF002900D107318B4503D153
:4023800001239C46E04401960136C84501D85645CDD90A21380000F0A9FE04050A21380000F02AFF09040C430A21019D280000F09DFE000704430A21280000F01DFF0906EB
:4023C0000C43FA218900009D280000F08FFE00030443FA218900280000F00EFF0D006421280000F083FE000204436421280000F003FF0D000A21280000F078FE0001044374
:402400000A21280000F0F8FE2000084303B03CBC90469946A246AB46F0BDC046F0B589B005003C4B1A685B680021009104A8FFF713FE059A130B03211940FA239B004B4378
:402440001E00110A0F242140642003004B43F118130923409800C3185800091822408C182B7D012B3ED12B69AE680A210393180000F03CFE07050A21039800F0BDFE0904E6
:402480000F430A21300000F031FE000707430A21300000F0B1FE09060F43FA218900200000F024FE00030743FA218900200000F0A3FE0E006421300000F018FE00023C0025
:4024C00004436421300000F097FE0E000A21300000F00CFE000104430A21300000F08CFE0C4306E023002A69E9686868FFF70AFF04002E680A21300000F0F8FD05050A21C1
:40250000300000F079FE090429432000FFF7A6FC09B0F0BD00030020F0B583B001900E000B0F032423409A00D31858000F0E0F231F40C7190A0D01210A4091008A185100BD
:40254000300C18400D18320B1440FA22920062431000340A1C4064210A006243841832091A4091008A18510064183340E41801993000FFF773FC324B18605960314B5E6029
:40258000019A1A60022D01D80C35013C681C1A2358430A2100F0AAFDC7193F19A308FF186421200000F0A2FD430018184300FF18C8214900200000F099FD3818072100F027
:4025C0001BFE002900D107311E4B99601E48FFF725FF1E4C206161611D48FFF71FFFA061E161174B1A685B682069616999421FD801D190421CD8124B18685968134B9A69E2
:40260000DB69994214D801D1904211D80122114B1A70E12212010D4B9A6009490C684D680D4A01235B4212196B410A604B6004E00023084A1370054A936003B0F0BDC0468E
:4026400000030020E4020020B0020020D8010020CC020020F8020020F0F1FFFF10B51A4B197502681A6042685A60C268DA6082689A6002691A611800FFF7D0FE134B18619E
:402680005961134A106851681A695B698B4215D801D1824212D80E4B186859680B4B9A69DB6999420AD801D1904207D80122094B1A70E1221201054B9A6004E00023054A23
:4026C0001370024A936010BDB0020020D801002000030020F802002010B51A4B197502681A6042685A60C268DA6082689A6002691A611800FFF792FE134B9861D961134A89
:40270000106851681A695B698B4215D801D1824212D80E4B186859680B4B9A69DB6999420AD801D1904207D80122094B1A70E1221201054B9A6004E00023054A1370024AEA
:40274000936010BDCC020020D801002000030020F8020020F0B54F464646C0B487B001262C4B1E702C4D0024AC602C4B1C602C4B1C7002232B4AD3606A4614750093019609
:4027800004339846039316270297033B9946049300216846FFF762FF6B461C754B46009301964346039302970433049300216846FFF792FF1C48FFF731FE286169611B48A6
:4027C000FFF72CFEA861E961194B1A685B6828696969994214D801D1904211D8144B186859680D4B9A69DB69994209D801D1904206D801220A4B1A70E1221201064B9A6026
:402800000C490D48FFF788FE07B00CBC90469946F0BDC046C8020020D8010020F4020020F8020020E4020020B0020020CC02002000030020172009033523120010B5054BCD
:402840001B78002B01D1FFF785FF03490220FEF70FFD10BDC80200205D28000070B5214B1A6A19688C4662441A621A6A5B689A4236D31D4B1C685D68012000210019694137
:4028800018605960174A002111621868596853691269904208D1994206D10122134B1A70E12212010F4B9A600E4CA269E369A0680021121A8B410C490868496882420FD1BC
:4028C0008B420DD10023094A1370A3600848FFF7A5FD206161610748FFF7A0FDA061E16170BDC046D801002000030020F8020020B0020020CC02002010B503211120FEF7A9
:402900005DFA42491120FEF747FA0322404B1A60404B1B68002B01DA3F4900E03F49404A13680B4313603F4A3F4B1A603F4A404B1A6000233F4A13603F4A40490A6040491B
:402940000A60404A116880204002014311603E490A6802430A603D4A13603D4A136001223C4B1A603C4A11683C4B0B40802189050B431360002445E03949A2005058DC23BE
:402980009B0103400919097A0B4336498C4662441360C30707D52D490A680123A3401B041B0C13430B60A3002D4A9B589B0707D527490A680123A3401B041B0C13430B60C4
:4029C000A300274A9B589A0502D58020400001E080204001DB0504D463000021224A995203E063000021204A9952204B5843204B9C4660441F4900F003FC00B2A2001E4B5E
:402A0000D0500134012CB7D910BDC046912B000020003A4080033A40702010137020001300003A408C00008004003A400000FF0718003A401C003A400400040010003A4044
:402A400014003A4000033A4040033A4028023A4038023A4018023A4030003A40FEFFFFDF8043000080003A401003002010270000E40C0000C81900000803002010B5094BE1
:402A80001B68002B0CDB084B1B68002BFBDB054A1368802109060B4313600A20FEF74AFA10BDC04600003A4008023A4010B5064B1B78002B04D1FFF71FFF0122024B1A7084
:402AC000FFF7DCFF10BDC046FC010020034A1368802149020B4313607047C04604003A40020083070CD0074B1B680120184001D19307F8D4002804D00122024B1A6000E0B1
:402B00000020704710023A4010B50400012802D90020FEF73FF9012C07D8A400044B9C46644420680004000C00E0002000B210BD80013A4070B504000D00012802D9002023
:402B4000FEF728F963000F4A995A09B2691A09B20D484843002906DDA3000C4A9A58D30F9A18531006E0A300084A9A58D30F9A18521053421818A400044BE15800F040FBEA
:402B800000B270BD100300201027000008030020014B1A681A60704710023A400004000C014B18607047C046080120400004000C014B18607047C04614012040024B186849
:402BC0000004000C7047C0460C01204070B504000D0000F092F8AC40024B1C6000F091F870BDC0460800204010B500F086F8064A116801230B43136000F083F8182101207C
:402C0000FFF7E4FF10BDC04600002040014B18607047C0463801204010B580229204074B1A600D22064B1A600320FFF7EFFF0548FFF7BCFF0020FFF7B1FF10BD00012040B2
:402C400024012040FFFF000010B5064B1B78002B04D1FFF7E1FF0122024B1A70FFF7C4FF10BDC046FD010020014B18687047C04630012040014B18607047C0463001204082
:402C80009023014AD05070470000002010B5040000F033F8044A1368C0218B43A4011C43146000F02EF810BD14E400E080225203014B1A607047C04600E100E0802252035E
:402CC000014B1A607047C04680E100E010B50400FFF7F4FF2000FFF7D3FF0320FFF7D6FFFFF7E4FF10BDC0460230800803D00138FDD1C046C046C0467047EFF3108072B6E5
:402D0000704780F31088704770B50400FFF7F5FF0500102C05D8104A136803218B43136016E0202C07D80C490B6803229343023A13430B600CE0302C07D807490B680322BF
:402D40009343013A13430B6002E00020FEF722F82800FFF7D6FF70BD3000104010B5B94B1B68002B00D09847B74B1B68DB0702D50022B64B1A60B64B1B789B0628D5B54B9D
:402D80001B68DB0507D5B44A1188C0239B000B431380012300E00023AE4A1268D20706D5AD4A118890239B000B4313800123002B0FD0A74A1278D20701D5012200E0022253
:402DC000A549088802430A800021A14A117000E000239F4A1278920600D417E19D4A1268D20611D510229D4B1A60994B1B78DB0701D5012300E00223974A11880B431380B9
:402E00001022934B1A701BE1914A1278120720D5904A126892070AD50222904B1A608E4A118888239B000B431380012311E0884A1278D20703D52521854A117009E02421C6
:402E4000834A1170864A1268002A02D01439854A11607F4A1278520700D4AEE07C4A1278D20749D5804A1268120727D57F4A12687F4909681F240C407E4909686418141B95
:402E8000102C09D8002C16D17B4A11687B4B0B401360012310340EE010240CE0754A116877480068411877480068C0B20870116801311160013C002CF0D119E06A4A126874
:402EC000520715D56B4A11686D48006841186D480068C0B208701168013111601168634A1268914203D20421674A116000E001236649674A116060E0564A1268920726D576
:402F00000222564B1A6063490B681D321A40096880231B020B4000D001239B185E4A1168CB1A136012685D4B1A604B4A118884239B000B4313805A4B1A68802149020A43A1
:402F40001A601968574A0A401A60012335E0564A1268D2061ED427E04F4A1168404A126891421DD23E4A1268013A4B4909688A4204D140224D490A603A490A60464A1168BA
:402F80004B48006841180978C9B24A4801601168013111603F4A12681F210A40102ADBD11021424A116008E03F4A1268520604D5394B1A68394B1A600123002B40D02E4A1A
:402FC00011682E4B0B40136000233B4A1360254A13603A4B1B789B070ED51D4B1B78DB0701D5092300E00A231B4A11880B4313806022174B1A7023E0314B1B689B0601D5D5
:40300000182200E01022204B1A6019E0104B1B78DB0615D42B4A13685B005B08136010210B4B1970144B186827490140196018682649014019601368802109060B431360DF
:4030400010BDC046C80100208C0E2640880E2640480200200C0F264058020020000F264054020020880F2640CC0F264064020020080326406802002060002640FFFEFFFFC8
:403080005C0200204003264068002640ED0F0000C00F2640080226404C0200205002002004022640FFFFFEFF8C0F2640800F26406C02002040022640C80F26406002002048
:4030C0006400264000002640FF5FFFFFFFFCFFFF044B1B681F221340082BF9D0024B18607047C0460802274040022740002243088B4274D303098B425FD3030A8B4244D3D0
:40310000030B8B4228D3030C8B420DD3FF22090212BA030C8B4202D31212090265D0030B8B4219D300E0090AC30B8B4201D3CB03C01A5241830B8B4201D38B03C01A524162
:40314000430B8B4201D34B03C01A5241030B8B4201D30B03C01A5241C30A8B4201D3CB02C01A5241830A8B4201D38B02C01A5241430A8B4201D34B02C01A5241030A8B4229
:4031800001D30B02C01A5241CDD2C3098B4201D3CB01C01A524183098B4201D38B01C01A524143098B4201D34B01C01A524103098B4201D30B01C01A5241C3088B4201D31E
:4031C000CB00C01A524183088B4201D38B00C01A524143088B4201D34B00C01A5241411A00D20146524110467047FFE701B5002000F0F0F802BDC0460029F7D076E770475E
:4032000003460B437FD4002243088B4274D303098B425FD3030A8B4244D3030B8B4228D3030C8B420DD3FF22090212BA030C8B4202D31212090265D0030B8B4219D300E0E1
:40324000090AC30B8B4201D3CB03C01A5241830B8B4201D38B03C01A5241430B8B4201D34B03C01A5241030B8B4201D30B03C01A5241C30A8B4201D3CB02C01A5241830A5E
:403280008B4201D38B02C01A5241430A8B4201D34B02C01A5241030A8B4201D30B02C01A5241CDD2C3098B4201D3CB01C01A524183098B4201D38B01C01A524143098B421F
:4032C00001D34B01C01A524103098B4201D30B01C01A5241C3088B4201D3CB00C01A524183088B4201D38B00C01A524143088B4201D34B00C01A5241411A00D201465241A8
:40330000104670475DE0CA0F00D04942031000D34042534000229C4603098B422DD3030A8B4212D3FC22890112BA030A8B420CD3890192118B4208D3890192118B4204D3A5
:4033400089013AD0921100E08909C3098B4201D3CB01C01A524183098B4201D38B01C01A524143098B4201D34B01C01A524103098B4201D30B01C01A5241C3088B4201D3A0
:40338000CB00C01A524183088B4201D38B00C01A5241D9D243088B4201D34B00C01A5241411A00D20146634652415B10104601D34042002B00D54942704763465B1000D372
:4033C000404201B5002000F005F802BD0029F8D016E770477047C046002B11D1002A0FD1002900D1002802D00021C943081C07B4024802A14018029003BDC046D9FFFFFFDD
:4034000003B4684601B5029800F006F8019B9E4602B00CBC7047C046F0B54D46564644465F46F0B4924683B004000D0099468B422FD82CD04946504600F0CCF829000600B8
:40344000200000F0C7F8331A9846203B9B4600D574E053465A4693401F005346424693401E00AF4229D826D05B46A41BBD41002B00DA79E0002200230092019301235A46DD
:4034800093400193012342469340009319E08242D0D900220023009201930C9B002B01D01C605D600098019903B03CBC90469946A246AB46F0BDA342D6D900220023009263
:4034C00001934346002BE8D0FB0772081A4346467B080EE0AB4201D1A2420CD8A41A9D41012024196D410021013E24184D41002E06D0AB42EED9013E24196D41002EF8D1C4
:403500005B460098019900196941002B22DB2B005A46D3402A004446E2401C005B461500002B2CDB26009E40330026004746BE403200801A994100900191AEE74246202305
:403540009B1A5246DA40414613004A468A4017001F4382E7424620239B1A2A0046469A402300F3401343D5E74246202300219B1A0022009101920122DA40019282E74246EE
:40358000202326009B1ADE402F00B446974066463B003343C9E7C0461C2101231B04984201D3000C10391B0A984201D3000A08391B09984201D30009043902A2105C40189B
:4035C0007047C0460403020201010101000000000000000010B5002903D1FFF7DDFF203002E0081CFFF7D8FF10BDC046014B18687047C046540100200E4B70B500251E00B6
:403600000D4CE41AA410A54204D0AB00F35898470135F8E700F0D4FE084B00251E00084CE41AA410A54204D0AB00F35898470135F8E770BDCC430000CC430000CC4300007D
:40364000D4430000002310B59A4203D0CC5CC4540133F9E710BD03008218934202D019700133FAE7704700000EB410B59DB002A9029008610B48822488604861012040423B
:403680001FABC881084804CBA400006801938C8100F06EF80023029A13701DB010BC08BC03B01847FFFFFF7F54010020F0B58E6885B007000C00039201939E4243D8902379
:4036C0008A89DB001A423ED003250969236801985B1A029363695D43EB0F5D19029B6D1001331B18AB4200D91D00530510D52900380000F037FB061E14D0029A2169FFF786
:40370000A1FFA289194B134080221343A38112E02A00380000F086FB061E0CD12169380000F0D4FA0C23402201203B60A38940421343A38117E0029B2661F61826606561BB
:40374000019EED1AA560019BB34200D21E0032000399206800F0A5FA0020A3689B1BA36023689E19266005B0F0BDC0467FFBFFFFF0B59FB0029005938B890F0016001B0634
:4037800010D50B69002B0DD1402100F0EBFA38603861002804D10C23029A01381360D8E040237B61002306AD6B6120336B761033AB7634002378002B03D1A31B049312D096
:4037C00003E0252BF9D00134F4E7A31B320039000298FFF76BFF431C00D1B4E06A69049B944663446B612378002B00D1ABE00122002352426A6002A95432521801342B60F6
:40380000EB60AB601370AB65534E21780522300000F03CFA002807D00123801B83402A68013413432B60EFE72B68DA0604D55322202102A8121811701A0704D553222B21D7
:4038400002A81218117022782A2A03D0099B00200A210EE0059A111D12680591002A01DB099204E05242EA60022213432B6001340BE02278303A092A04D84B4301349B1867
:403880000120F6E7002800D0099323782E2B1ED163782A2B0AD1059B02341A1D1B680592002B01DA01235B42079310E000230A201A0001346B6021783039092904D8424314
:4038C000013452180123F6E7002B00D00792234E21780322300000F0D9F9002806D04023801B83402A68013413432B60217806221B48661C297600F0C9F9002812D0194BA7
:40390000002B06D10722059B073393430833059314E005AB00933A00134B2900029800E000BF07E005AB00933A000F4B2900029800F08AF80390039B013304D06B69039A0B
:403940009B186B6135E7BB890B985B0601D5012040421FB0F0BDC0468C430000924300009643000000000000AD360000F7B5170001938A680B6900900C00934200DA1300EE
:4039800022003B6043321278002A01D001333B6023689B0602D53B6802333B60062523681D401ED0230043331B785A1E9341226892061CD53020E1184331087021005A1CB3
:4039C00045310978A2184332023311700FE022000123193201990098089EB047431C0ED00135E3683A689B1A9D42F0DBDAE72200019943320098089DA847431C02D101206C
:403A0000404220E006232068E1683A6803400025042B03D18D1AEB43DB171D40A3682269934201DD9B1AED180027BD420AD0220001231A3201990098089EB047431CDED068
:403A40000137F2E70020FEBDF0B58BB006920A0043320793059004920A7E0C00109B6E2A00D1ABE011D8632A22D009D8002A00D1B5E0582A00D0C5E045310A70814A4FE0B1
:403A8000642A1DD0692A1BD0BCE0732A00D1AAE009D86F2A29D0702A00D0B3E0202209680A43226037E0752A1FD0782A33D0A9E00E001A684236111D196013683370A4E063
:403AC00021681A68080606D4490604D5111D19600023D55E02E0111D19601568002D3BDA2D23049A6D42137036E021681A68080606D4490604D51568111D1960ADB202E0B0
:403B0000111D196015685F4B227E039308276F2A1DD00A271BE022007821453211705A4A19680392081D226818600D68100602D4500600D5ADB2D30702D520231A4322604E
:403B40001027002D03D1202322689A4322602300002243331A7002E00A274A4B03936368A360002B09DB0422216891432160002D05D1049E002B11D07BE0002D79D0049E59
:403B800028003900FFF738FB039B013E5B5C280033703900FFF7AAFA051EF1D1082F09D12368DB0706D563682269934202DC3023013E3370049B9B1B23612BE009681A68F6
:403BC000080607D4490605D5111D19601368A28A1A8004E0111D1960136862691A600023049E236116E01A68111D1960166800216268300000F04AF8002801D0801B6060F9
:403C0000636803E0260042363270012323610023049A1370079B09AA00932100069B0598FFF7A4FE431C02D10120404227E02369320006990598079DA847431CF4D02368B4
:403C400000259B070FD4099BE068984217DA180015E022000123193206990598079EB047431CE1D00135E368099A9B1A9D42F0DBE9E72600039B42361B7833708EE70BB068
:403C8000F0BDC0469D430000AE430000C9B28218904204D003788B4202D00130F8E70020704710B5884202D98B18984201D3002305E09B1A013A08D3995C8154FAE79342B6
:403CC00003D0CC5CC4540133F9E710BD70B50500002944D00C1F2368002B00DAE418280000F0D8F81E4A13681100002B02D16360146031E0A3420DD92268A018834203D1EA
:403D000018685B688218226063600C6024E0A24203D813005A68002AF9D11E689819A0420BD12168711858181960824214D110685268411819605A600EE0A04202D90C2338
:403D40002B6009E021686018824203D1106852684118216062605C60280000F09CF870BD04020020032370B5CD1C9D43083506000C2D01D20C2501E0002D01DBA94202D969
:403D80000C23336048E0300000F084F8234B1C681A002100002913D00B685B1B0DD40B2B02D90B60CC181EE08C4202D1636813601AE04B6863600C0016E00C004968E9E73E
:403DC000174C2368002B03D1300000F051F820602900300000F04CF8431C18D00323C41C9C43A0420DD12560300000F054F8200007220B30231D9043C31A0ED05A42E25063
:403E00000BE0211A300000F033F8431CEBD10C233000336000F03FF8002070BD0402002000020020F8B506000C001500002904D11100FFF797FF040018E0002A03D1FFF7E9
:403E400045FF2C0012E000F027F885420ED929003000FFF787FF071E07D021002A00FFF7F1FB21003000FFF731FF3C002000F8BD002370B5064C050008002360FCF7BAFEC8
:403E8000431C03D12368002B00D02B6070BDC04614030020704770470B1F1A68101F002A04DA891804390B68D0180438704700000000000064F5FF7F01000000A03F000020
:403EC000A83F0000B43F0000BC3F0000C83F0000D03F0000DC3F0000E43F0000F03F00000D0A2A2A2A2A2A2A2A2A2A2A2A2A2A2A2A2A2A2A2A2A2A2A2A2A2A2A2A2A2A2A67
:403F00002A2A2A2A2A2A2A2A2A2A2A2A2A2A2A2A2A2A2A2A2A2A2A2A2A2A2A2A2A2A2A2A2A2A2A2A2A2A2A2A2A2A2A2A2A2A2A2A2A2A2A2A2A0D0A00436F726E6520426FF0
:403F40007320576972656C6573732053656E736F72204E6F64650D0A000000000D0A00003132333435363738396131323334353637383962313233343536373839633132D2
:403F800033343536373839643132333435363738396531323334353637383900257309006E6F7274680000006E6F727468656173740000006561737400000000736F7574E8
:403FC0006865617374000000736F757468000000736F7574687765737400000077657374000000006E6F72746877657374000000696E76616C69640025640D0A000000004B
:4040000000300F40800200330F40000500400F400008000080320F409442000080000000830F34013E1058045F01180887408C04E2101E0130013AC25440560458045B04DB
:404040005C015D305F01000401C00308080109080A460E02104011101302184019811B181E822208230128412B083120320A3340388039143B0140444120430848084986E7
:404080004A024B0250405108521063016610676269156AC66B40730286408E019740C007C28FC40ACA0DCC0FCE0FD007D20CD8F8E210001204C1050206340704090D0C60EE
:4040C0000D020F08100211021210130D1402150117021812190D1CA31D0D1E4C2012210D28102A022C032D0D2E9830E0310F341F360138223B023E40400549FF4AFF4BFF49
:404100004C024D0C4EF854095604580459045A0B5B045C335D395F01624863A168F06AF06CF06EF08201860288028B018C0192019801A001A801AC02AF01B401B501B6021A
:40414000B701B880BE10BF50C005C9FFCAFFCBFFCC03CD0CCEF4D804D904DA0ADB04DC03DD09DF01E248E3A1E8F0EAF0ECF0EEF000440101040405820706081009880A64B4
:404180000E441150130214401551184419401F5021022660284029802C02301031023240330C380439503E1048024C02588059055A20614063406C026E107A407E208740A3
:4041C0008808915192C494049720988099079B02A188A308A408AA08AD80AF08B480B710C0FDC25FC4DBCA19CC0FCE2ED218D60FD809DE41E420EA08AF40B440EA405708DA
:4042000059205F4868046E8084048F08D4C0D6A0DAC0E64087408D2097409D209F08A640E64007805382540286408B80A002A640A802AF08C020D4A0D620E640EA30AF02B9
:40424000B780EA1008010B804401C208D004AF40100A11011208130101000F4004300F4004310F400A320F4036330F405F340F4044350F4003370F400B400F4007410F404F
:404280000E420F4003430F4005450F4001460F4004600F400002001D1410230003100C003900068021C1423A210010606343009463100000631000000000000042A3214C43
:4042C00000000010400003E004003A1F0000C080000011002503400006DEFB0C1FFFFFFF2200F00C040000000000022004040404333300010000C00040011011C0010011BF
:404300004001400100000000000000000000000000000000030405060708090A0B0C0E0F101112131415161718191B1C1D1E1F2021222325262728292A2B2E2F3031323374
:4043400034350000EEDBC9B9AA9B8E82766B60564D443B332C241D17100A040000001F003B005A0078009700B500D400F300110130014E011F1C1F1E1F1E1F1F1E1F1E1FBE
:40438000000000000000000072074300232D302B2000686C4C006566674546470030313233343536373839414243444546003031323334353637383961626364656600004E
:4043C000F8B5C046F8BC08BC9E4670476D0400006D0C0000F8B5C046F8BC08BC9E46704745040000F8430000C000002098000000C00100000000000000000000DA0074013B
:4044000091026F067D0B280AB808580418030020010000000000C05D80BB000030000000006CDC02F000000004040400000000000000000000000000000000000000000094
:404440000000000000000000000000008A4300000000000000000000000000000000000000000000000000000000000000000000000000000000000000000000000000006F
:40448000000000000000000000000000F4000020000000000000000000000000000000000000000000000000000000000000000000000000000000000000000000000000E8
:4044C00000000000000000000000000000000000000000000000000000000000000000000000000000000000000000000000000000000000000000000000000000000000BC
:40450000000000000000000000000000000000000000000000000000000000000000000000000000000000000000000000000000000000000000000000000000000000007B
:40454000000000000000000000000000000000000000000000000000000000000000000000000000000000000000000000000000000000000000000000000000000000003B
:4045800000000000000000000000000000000000000000000000000000000000000000000000000000000000000000000000000000000000000000000000000000000000FB
:020000040001F9
:0200000490303A
:0200000044F6C4
:0200000490402A
:4000000000000000000000000000000000000000000000000000000000000000000000000000000000000000000000000000000000000000000000000000000000000000C0
:0200000490501A
:0C0000000002100811A00001101D56960F
:0200000490600A
:0100000001FE
:00000001FF